{
  "_format": "hh-sol-artifact-1",
  "contractName": "GalaxyBayNFT",
  "sourceName": "contracts/GalaxyBayNFT.sol",
  "abi": [
    {
      "inputs": [],
      "stateMutability": "nonpayable",
      "type": "constructor"
    },
    {
      "inputs": [
        {
          "internalType": "address",
          "name": "sender",
          "type": "address"
        },
        {
          "internalType": "uint256",
          "name": "tokenId",
          "type": "uint256"
        },
        {
          "internalType": "address",
          "name": "owner",
          "type": "address"
        }
      ],
      "name": "ERC721IncorrectOwner",
      "type": "error"
    },
    {
      "inputs": [
        {
          "internalType": "address",
          "name": "operator",
          "type": "address"
        },
        {
          "internalType": "uint256",
          "name": "tokenId",
          "type": "uint256"
        }
      ],
      "name": "ERC721InsufficientApproval",
      "type": "error"
    },
    {
      "inputs": [
        {
          "internalType": "address",
          "name": "approver",
          "type": "address"
        }
      ],
      "name": "ERC721InvalidApprover",
      "type": "error"
    },
    {
      "inputs": [
        {
          "internalType": "address",
          "name": "operator",
          "type": "address"
        }
      ],
      "name": "ERC721InvalidOperator",
      "type": "error"
    },
    {
      "inputs": [
        {
          "internalType": "address",
          "name": "owner",
          "type": "address"
        }
      ],
      "name": "ERC721InvalidOwner",
      "type": "error"
    },
    {
      "inputs": [
        {
          "internalType": "address",
          "name": "receiver",
          "type": "address"
        }
      ],
      "name": "ERC721InvalidReceiver",
      "type": "error"
    },
    {
      "inputs": [
        {
          "internalType": "address",
          "name": "sender",
          "type": "address"
        }
      ],
      "name": "ERC721InvalidSender",
      "type": "error"
    },
    {
      "inputs": [
        {
          "internalType": "uint256",
          "name": "tokenId",
          "type": "uint256"
        }
      ],
      "name": "ERC721NonexistentToken",
      "type": "error"
    },
    {
      "inputs": [
        {
          "internalType": "address",
          "name": "owner",
          "type": "address"
        }
      ],
      "name": "OwnableInvalidOwner",
      "type": "error"
    },
    {
      "inputs": [
        {
          "internalType": "address",
          "name": "account",
          "type": "address"
        }
      ],
      "name": "OwnableUnauthorizedAccount",
      "type": "error"
    },
    {
      "anonymous": false,
      "inputs": [
        {
          "indexed": true,
          "internalType": "address",
          "name": "owner",
          "type": "address"
        },
        {
          "indexed": true,
          "internalType": "address",
          "name": "approved",
          "type": "address"
        },
        {
          "indexed": true,
          "internalType": "uint256",
          "name": "tokenId",
          "type": "uint256"
        }
      ],
      "name": "Approval",
      "type": "event"
    },
    {
      "anonymous": false,
      "inputs": [
        {
          "indexed": true,
          "internalType": "address",
          "name": "owner",
          "type": "address"
        },
        {
          "indexed": true,
          "internalType": "address",
          "name": "operator",
          "type": "address"
        },
        {
          "indexed": false,
          "internalType": "bool",
          "name": "approved",
          "type": "bool"
        }
      ],
      "name": "ApprovalForAll",
      "type": "event"
    },
    {
      "anonymous": false,
      "inputs": [
        {
          "indexed": false,
          "internalType": "uint256",
          "name": "_fromTokenId",
          "type": "uint256"
        },
        {
          "indexed": false,
          "internalType": "uint256",
          "name": "_toTokenId",
          "type": "uint256"
        }
      ],
      "name": "BatchMetadataUpdate",
      "type": "event"
    },
    {
      "anonymous": false,
      "inputs": [
        {
          "indexed": false,
          "internalType": "uint256",
          "name": "_tokenId",
          "type": "uint256"
        }
      ],
      "name": "MetadataUpdate",
      "type": "event"
    },
    {
      "anonymous": false,
      "inputs": [
        {
          "indexed": true,
          "internalType": "address",
          "name": "previousOwner",
          "type": "address"
        },
        {
          "indexed": true,
          "internalType": "address",
          "name": "newOwner",
          "type": "address"
        }
      ],
      "name": "OwnershipTransferred",
      "type": "event"
    },
    {
      "anonymous": false,
      "inputs": [
        {
          "indexed": true,
          "internalType": "address",
          "name": "from",
          "type": "address"
        },
        {
          "indexed": true,
          "internalType": "address",
          "name": "to",
          "type": "address"
        },
        {
          "indexed": true,
          "internalType": "uint256",
          "name": "tokenId",
          "type": "uint256"
        }
      ],
      "name": "Transfer",
      "type": "event"
    },
    {
      "inputs": [
        {
          "internalType": "address",
          "name": "to",
          "type": "address"
        },
        {
          "internalType": "uint256",
          "name": "tokenId",
          "type": "uint256"
        }
      ],
      "name": "approve",
      "outputs": [],
      "stateMutability": "nonpayable",
      "type": "function"
    },
    {
      "inputs": [
        {
          "internalType": "address",
          "name": "owner",
          "type": "address"
        }
      ],
      "name": "balanceOf",
      "outputs": [
        {
          "internalType": "uint256",
          "name": "",
          "type": "uint256"
        }
      ],
      "stateMutability": "view",
      "type": "function"
    },
    {
      "inputs": [
        {
          "internalType": "uint256",
          "name": "tokenId",
          "type": "uint256"
        }
      ],
      "name": "getApproved",
      "outputs": [
        {
          "internalType": "address",
          "name": "",
          "type": "address"
        }
      ],
      "stateMutability": "view",
      "type": "function"
    },
    {
      "inputs": [
        {
          "internalType": "address",
          "name": "owner",
          "type": "address"
        },
        {
          "internalType": "address",
          "name": "operator",
          "type": "address"
        }
      ],
      "name": "isApprovedForAll",
      "outputs": [
        {
          "internalType": "bool",
          "name": "",
          "type": "bool"
        }
      ],
      "stateMutability": "view",
      "type": "function"
    },
    {
      "inputs": [
        {
          "internalType": "string",
          "name": "tokenURI",
          "type": "string"
        }
      ],
      "name": "mint",
      "outputs": [],
      "stateMutability": "nonpayable",
      "type": "function"
    },
    {
      "inputs": [],
      "name": "name",
      "outputs": [
        {
          "internalType": "string",
          "name": "",
          "type": "string"
        }
      ],
      "stateMutability": "view",
      "type": "function"
    },
    {
      "inputs": [],
      "name": "nextTokenId",
      "outputs": [
        {
          "internalType": "uint256",
          "name": "",
          "type": "uint256"
        }
      ],
      "stateMutability": "view",
      "type": "function"
    },
    {
      "inputs": [],
      "name": "owner",
      "outputs": [
        {
          "internalType": "address",
          "name": "",
          "type": "address"
        }
      ],
      "stateMutability": "view",
      "type": "function"
    },
    {
      "inputs": [
        {
          "internalType": "uint256",
          "name": "tokenId",
          "type": "uint256"
        }
      ],
      "name": "ownerOf",
      "outputs": [
        {
          "internalType": "address",
          "name": "",
          "type": "address"
        }
      ],
      "stateMutability": "view",
      "type": "function"
    },
    {
      "inputs": [],
      "name": "renounceOwnership",
      "outputs": [],
      "stateMutability": "nonpayable",
      "type": "function"
    },
    {
      "inputs": [
        {
          "internalType": "address",
          "name": "from",
          "type": "address"
        },
        {
          "internalType": "address",
          "name": "to",
          "type": "address"
        },
        {
          "internalType": "uint256",
          "name": "tokenId",
          "type": "uint256"
        }
      ],
      "name": "safeTransferFrom",
      "outputs": [],
      "stateMutability": "nonpayable",
      "type": "function"
    },
    {
      "inputs": [
        {
          "internalType": "address",
          "name": "from",
          "type": "address"
        },
        {
          "internalType": "address",
          "name": "to",
          "type": "address"
        },
        {
          "internalType": "uint256",
          "name": "tokenId",
          "type": "uint256"
        },
        {
          "internalType": "bytes",
          "name": "data",
          "type": "bytes"
        }
      ],
      "name": "safeTransferFrom",
      "outputs": [],
      "stateMutability": "nonpayable",
      "type": "function"
    },
    {
      "inputs": [
        {
          "internalType": "address",
          "name": "operator",
          "type": "address"
        },
        {
          "internalType": "bool",
          "name": "approved",
          "type": "bool"
        }
      ],
      "name": "setApprovalForAll",
      "outputs": [],
      "stateMutability": "nonpayable",
      "type": "function"
    },
    {
      "inputs": [
        {
          "internalType": "bytes4",
          "name": "interfaceId",
          "type": "bytes4"
        }
      ],
      "name": "supportsInterface",
      "outputs": [
        {
          "internalType": "bool",
          "name": "",
          "type": "bool"
        }
      ],
      "stateMutability": "view",
      "type": "function"
    },
    {
      "inputs": [],
      "name": "symbol",
      "outputs": [
        {
          "internalType": "string",
          "name": "",
          "type": "string"
        }
      ],
      "stateMutability": "view",
      "type": "function"
    },
    {
      "inputs": [
        {
          "internalType": "uint256",
          "name": "tokenId",
          "type": "uint256"
        }
      ],
      "name": "tokenURI",
      "outputs": [
        {
          "internalType": "string",
          "name": "",
          "type": "string"
        }
      ],
      "stateMutability": "view",
      "type": "function"
    },
    {
      "inputs": [
        {
          "internalType": "address",
          "name": "from",
          "type": "address"
        },
        {
          "internalType": "address",
          "name": "to",
          "type": "address"
        },
        {
          "internalType": "uint256",
          "name": "tokenId",
          "type": "uint256"
        }
      ],
      "name": "transferFrom",
      "outputs": [],
      "stateMutability": "nonpayable",
      "type": "function"
    },
    {
      "inputs": [
        {
          "internalType": "address",
          "name": "newOwner",
          "type": "address"
        }
      ],
      "name": "transferOwnership",
      "outputs": [],
      "stateMutability": "nonpayable",
      "type": "function"
    }
  ],
  "bytecode": "0x608060405234801561001057600080fd5b50336040518060400160405280600c81526020017f47616c6178794261794e465400000000000000000000000000000000000000008152506040518060400160405280600581526020017f47424e4654000000000000000000000000000000000000000000000000000000815250816000908161008d919061043d565b50806001908161009d919061043d565b505050600073ffffffffffffffffffffffffffffffffffffffff168173ffffffffffffffffffffffffffffffffffffffff16036101125760006040517f1e4fbdf70000000000000000000000000000000000000000000000000000000081526004016101099190610550565b60405180910390fd5b6101218161012760201b60201c565b5061056b565b6000600760009054906101000a900473ffffffffffffffffffffffffffffffffffffffff16905081600760006101000a81548173ffffffffffffffffffffffffffffffffffffffff021916908373ffffffffffffffffffffffffffffffffffffffff1602179055508173ffffffffffffffffffffffffffffffffffffffff168173ffffffffffffffffffffffffffffffffffffffff167f8be0079c531659141344cd1fd0a4f28419497f9722a3daafe3b4186f6b6457e060405160405180910390a35050565b600081519050919050565b7f4e487b7100000000000000000000000000000000000000000000000000000000600052604160045260246000fd5b7f4e487b7100000000000000000000000000000000000000000000000000000000600052602260045260246000fd5b6000600282049050600182168061026e57607f821691505b60208210810361028157610280610227565b5b50919050565b60008190508160005260206000209050919050565b60006020601f8301049050919050565b600082821b905092915050565b6000600883026102e97fffffffffffffffffffffffffffffffffffffffffffffffffffffffffffffffff826102ac565b6102f386836102ac565b95508019841693508086168417925050509392505050565b6000819050919050565b6000819050919050565b600061033a6103356103308461030b565b610315565b61030b565b9050919050565b6000819050919050565b6103548361031f565b61036861036082610341565b8484546102b9565b825550505050565b600090565b61037d610370565b61038881848461034b565b505050565b5b818110156103ac576103a1600082610375565b60018101905061038e565b5050565b601f8211156103f1576103c281610287565b6103cb8461029c565b810160208510156103da578190505b6103ee6103e68561029c565b83018261038d565b50505b505050565b600082821c905092915050565b6000610414600019846008026103f6565b1980831691505092915050565b600061042d8383610403565b9150826002028217905092915050565b610446826101ed565b67ffffffffffffffff81111561045f5761045e6101f8565b5b6104698254610256565b6104748282856103b0565b600060209050601f8311600181146104a75760008415610495578287015190505b61049f8582610421565b865550610507565b601f1984166104b586610287565b60005b828110156104dd578489015182556001820191506020850194506020810190506104b8565b868310156104fa57848901516104f6601f891682610403565b8355505b6001600288020188555050505b505050505050565b600073ffffffffffffffffffffffffffffffffffffffff82169050919050565b600061053a8261050f565b9050919050565b61054a8161052f565b82525050565b60006020820190506105656000830184610541565b92915050565b61267f8061057a6000396000f3fe608060405234801561001057600080fd5b50600436106101165760003560e01c806375794a3c116100a2578063b88d4fde11610071578063b88d4fde146102cd578063c87b56dd146102e9578063d85d3d2714610319578063e985e9c514610335578063f2fde38b1461036557610116565b806375794a3c146102575780638da5cb5b1461027557806395d89b4114610293578063a22cb465146102b157610116565b806323b872dd116100e957806323b872dd146101b557806342842e0e146101d15780636352211e146101ed57806370a082311461021d578063715018a61461024d57610116565b806301ffc9a71461011b57806306fdde031461014b578063081812fc14610169578063095ea7b314610199575b600080fd5b61013560048036038101906101309190611b27565b610381565b6040516101429190611b6f565b60405180910390f35b6101536103e2565b6040516101609190611c1a565b60405180910390f35b610183600480360381019061017e9190611c72565b610474565b6040516101909190611ce0565b60405180910390f35b6101b360048036038101906101ae9190611d27565b610490565b005b6101cf60048036038101906101ca9190611d67565b6104a6565b005b6101eb60048036038101906101e69190611d67565b6105a8565b005b61020760048036038101906102029190611c72565b6105c8565b6040516102149190611ce0565b60405180910390f35b61023760048036038101906102329190611dba565b6105da565b6040516102449190611df6565b60405180910390f35b610255610694565b005b61025f6106a8565b60405161026c9190611df6565b60405180910390f35b61027d6106ae565b60405161028a9190611ce0565b60405180910390f35b61029b6106d8565b6040516102a89190611c1a565b60405180910390f35b6102cb60048036038101906102c69190611e3d565b61076a565b005b6102e760048036038101906102e29190611fb2565b610780565b005b61030360048036038101906102fe9190611c72565b6107a5565b6040516103109190611c1a565b60405180910390f35b610333600480360381019061032e9190612095565b6108b8565b005b61034f600480360381019061034a91906120e2565b610930565b60405161035c9190611b6f565b60405180910390f35b61037f600480360381019061037a9190611dba565b6109c4565b005b6000634906490660e01b7bffffffffffffffffffffffffffffffffffffffffffffffffffffffff1916827bffffffffffffffffffffffffffffffffffffffffffffffffffffffff191614806103db57506103da82610a4a565b5b9050919050565b6060600080546103f190612151565b80601f016020809104026020016040519081016040528092919081815260200182805461041d90612151565b801561046a5780601f1061043f5761010080835404028352916020019161046a565b820191906000526020600020905b81548152906001019060200180831161044d57829003601f168201915b5050505050905090565b600061047f82610b2c565b5061048982610bb4565b9050919050565b6104a2828261049d610bf1565b610bf9565b5050565b600073ffffffffffffffffffffffffffffffffffffffff168273ffffffffffffffffffffffffffffffffffffffff16036105185760006040517f64a0ae9200000000000000000000000000000000000000000000000000000000815260040161050f9190611ce0565b60405180910390fd5b600061052c8383610527610bf1565b610c0b565b90508373ffffffffffffffffffffffffffffffffffffffff168173ffffffffffffffffffffffffffffffffffffffff16146105a2578382826040517f64283d7b00000000000000000000000000000000000000000000000000000000815260040161059993929190612182565b60405180910390fd5b50505050565b6105c383838360405180602001604052806000815250610780565b505050565b60006105d382610b2c565b9050919050565b60008073ffffffffffffffffffffffffffffffffffffffff168273ffffffffffffffffffffffffffffffffffffffff160361064d5760006040517f89c62b640000000000000000000000000000000000000000000000000000000081526004016106449190611ce0565b60405180910390fd5b600360008373ffffffffffffffffffffffffffffffffffffffff1673ffffffffffffffffffffffffffffffffffffffff168152602001908152602001600020549050919050565b61069c610e25565b6106a66000610eac565b565b60085481565b6000600760009054906101000a900473ffffffffffffffffffffffffffffffffffffffff16905090565b6060600180546106e790612151565b80601f016020809104026020016040519081016040528092919081815260200182805461071390612151565b80156107605780601f1061073557610100808354040283529160200191610760565b820191906000526020600020905b81548152906001019060200180831161074357829003601f168201915b5050505050905090565b61077c610775610bf1565b8383610f72565b5050565b61078b8484846104a6565b61079f610796610bf1565b858585856110e1565b50505050565b60606107b082610b2c565b5060006006600084815260200190815260200160002080546107d190612151565b80601f01602080910402602001604051908101604052809291908181526020018280546107fd90612151565b801561084a5780601f1061081f5761010080835404028352916020019161084a565b820191906000526020600020905b81548152906001019060200180831161082d57829003601f168201915b50505050509050600061085b611292565b905060008151036108705781925050506108b3565b6000825111156108a557808260405160200161088d9291906121f5565b604051602081830303815290604052925050506108b3565b6108ae846112a9565b925050505b919050565b6000600860008154809291906108cd90612248565b9190505590506108dd3382611312565b61092b8184848080601f016020809104026020016040519081016040528093929190818152602001838380828437600081840152601f19601f82011690508083019250505050505050611330565b505050565b6000600560008473ffffffffffffffffffffffffffffffffffffffff1673ffffffffffffffffffffffffffffffffffffffff16815260200190815260200160002060008373ffffffffffffffffffffffffffffffffffffffff1673ffffffffffffffffffffffffffffffffffffffff16815260200190815260200160002060009054906101000a900460ff16905092915050565b6109cc610e25565b600073ffffffffffffffffffffffffffffffffffffffff168173ffffffffffffffffffffffffffffffffffffffff1603610a3e5760006040517f1e4fbdf7000000000000000000000000000000000000000000000000000000008152600401610a359190611ce0565b60405180910390fd5b610a4781610eac565b50565b60007f80ac58cd000000000000000000000000000000000000000000000000000000007bffffffffffffffffffffffffffffffffffffffffffffffffffffffff1916827bffffffffffffffffffffffffffffffffffffffffffffffffffffffff19161480610b1557507f5b5e139f000000000000000000000000000000000000000000000000000000007bffffffffffffffffffffffffffffffffffffffffffffffffffffffff1916827bffffffffffffffffffffffffffffffffffffffffffffffffffffffff1916145b80610b255750610b248261138c565b5b9050919050565b600080610b38836113f6565b9050600073ffffffffffffffffffffffffffffffffffffffff168173ffffffffffffffffffffffffffffffffffffffff1603610bab57826040517f7e273289000000000000000000000000000000000000000000000000000000008152600401610ba29190611df6565b60405180910390fd5b80915050919050565b60006004600083815260200190815260200160002060009054906101000a900473ffffffffffffffffffffffffffffffffffffffff169050919050565b600033905090565b610c068383836001611433565b505050565b600080610c17846113f6565b9050600073ffffffffffffffffffffffffffffffffffffffff168373ffffffffffffffffffffffffffffffffffffffff1614610c5957610c588184866115f8565b5b600073ffffffffffffffffffffffffffffffffffffffff168173ffffffffffffffffffffffffffffffffffffffff1614610cea57610c9b600085600080611433565b6001600360008373ffffffffffffffffffffffffffffffffffffffff1673ffffffffffffffffffffffffffffffffffffffff168152602001908152602001600020600082825403925050819055505b600073ffffffffffffffffffffffffffffffffffffffff168573ffffffffffffffffffffffffffffffffffffffff1614610d6d576001600360008773ffffffffffffffffffffffffffffffffffffffff1673ffffffffffffffffffffffffffffffffffffffff168152602001908152602001600020600082825401925050819055505b846002600086815260200190815260200160002060006101000a81548173ffffffffffffffffffffffffffffffffffffffff021916908373ffffffffffffffffffffffffffffffffffffffff160217905550838573ffffffffffffffffffffffffffffffffffffffff168273ffffffffffffffffffffffffffffffffffffffff167fddf252ad1be2c89b69c2b068fc378daa952ba7f163c4a11628f55a4df523b3ef60405160405180910390a4809150509392505050565b610e2d610bf1565b73ffffffffffffffffffffffffffffffffffffffff16610e4b6106ae565b73ffffffffffffffffffffffffffffffffffffffff1614610eaa57610e6e610bf1565b6040517f118cdaa7000000000000000000000000000000000000000000000000000000008152600401610ea19190611ce0565b60405180910390fd5b565b6000600760009054906101000a900473ffffffffffffffffffffffffffffffffffffffff16905081600760006101000a81548173ffffffffffffffffffffffffffffffffffffffff021916908373ffffffffffffffffffffffffffffffffffffffff1602179055508173ffffffffffffffffffffffffffffffffffffffff168173ffffffffffffffffffffffffffffffffffffffff167f8be0079c531659141344cd1fd0a4f28419497f9722a3daafe3b4186f6b6457e060405160405180910390a35050565b600073ffffffffffffffffffffffffffffffffffffffff168273ffffffffffffffffffffffffffffffffffffffff1603610fe357816040517f5b08ba18000000000000000000000000000000000000000000000000000000008152600401610fda9190611ce0565b60405180910390fd5b80600560008573ffffffffffffffffffffffffffffffffffffffff1673ffffffffffffffffffffffffffffffffffffffff16815260200190815260200160002060008473ffffffffffffffffffffffffffffffffffffffff1673ffffffffffffffffffffffffffffffffffffffff16815260200190815260200160002060006101000a81548160ff0219169083151502179055508173ffffffffffffffffffffffffffffffffffffffff168373ffffffffffffffffffffffffffffffffffffffff167f17307eab39ab6107e8899845ad3d59bd9653f200f220920489ca2b5937696c31836040516110d49190611b6f565b60405180910390a3505050565b60008373ffffffffffffffffffffffffffffffffffffffff163b111561128b578273ffffffffffffffffffffffffffffffffffffffff1663150b7a02868685856040518563ffffffff1660e01b815260040161114094939291906122e5565b6020604051808303816000875af192505050801561117c57506040513d601f19601f820116820180604052508101906111799190612346565b60015b611200573d80600081146111ac576040519150601f19603f3d011682016040523d82523d6000602084013e6111b1565b606091505b5060008151036111f857836040517f64a0ae920000000000000000000000000000000000000000000000000000000081526004016111ef9190611ce0565b60405180910390fd5b805181602001fd5b63150b7a0260e01b7bffffffffffffffffffffffffffffffffffffffffffffffffffffffff1916817bffffffffffffffffffffffffffffffffffffffffffffffffffffffff19161461128957836040517f64a0ae920000000000000000000000000000000000000000000000000000000081526004016112809190611ce0565b60405180910390fd5b505b5050505050565b606060405180602001604052806000815250905090565b60606112b482610b2c565b5060006112bf611292565b905060008151116112df576040518060200160405280600081525061130a565b806112e9846116bc565b6040516020016112fa9291906121f5565b6040516020818303038152906040525b915050919050565b61132c82826040518060200160405280600081525061178a565b5050565b80600660008481526020019081526020016000209081611350919061251f565b507ff8e1a15aba9398e019f0b49df1a4fde98ee17ae345cb5f6b5e2c27f5033e8ce7826040516113809190611df6565b60405180910390a15050565b60007f01ffc9a7000000000000000000000000000000000000000000000000000000007bffffffffffffffffffffffffffffffffffffffffffffffffffffffff1916827bffffffffffffffffffffffffffffffffffffffffffffffffffffffff1916149050919050565b60006002600083815260200190815260200160002060009054906101000a900473ffffffffffffffffffffffffffffffffffffffff169050919050565b808061146c5750600073ffffffffffffffffffffffffffffffffffffffff168273ffffffffffffffffffffffffffffffffffffffff1614155b156115a057600061147c84610b2c565b9050600073ffffffffffffffffffffffffffffffffffffffff168373ffffffffffffffffffffffffffffffffffffffff16141580156114e757508273ffffffffffffffffffffffffffffffffffffffff168173ffffffffffffffffffffffffffffffffffffffff1614155b80156114fa57506114f88184610930565b155b1561153c57826040517fa9fbf51f0000000000000000000000000000000000000000000000000000000081526004016115339190611ce0565b60405180910390fd5b811561159e57838573ffffffffffffffffffffffffffffffffffffffff168273ffffffffffffffffffffffffffffffffffffffff167f8c5be1e5ebec7d5bd14f71427d1e84f3dd0314c0f7b2291e5b200ac8c7c3b92560405160405180910390a45b505b836004600085815260200190815260200160002060006101000a81548173ffffffffffffffffffffffffffffffffffffffff021916908373ffffffffffffffffffffffffffffffffffffffff16021790555050505050565b6116038383836117ae565b6116b757600073ffffffffffffffffffffffffffffffffffffffff168373ffffffffffffffffffffffffffffffffffffffff160361167857806040517f7e27328900000000000000000000000000000000000000000000000000000000815260040161166f9190611df6565b60405180910390fd5b81816040517f177e802f0000000000000000000000000000000000000000000000000000000081526004016116ae9291906125f1565b60405180910390fd5b505050565b6060600060016116cb8461186f565b01905060008167ffffffffffffffff8111156116ea576116e9611e87565b5b6040519080825280601f01601f19166020018201604052801561171c5781602001600182028036833780820191505090505b509050600082602001820190505b60011561177f578080600190039150507f3031323334353637383961626364656600000000000000000000000000000000600a86061a8153600a85816117735761177261261a565b5b0494506000850361172a575b819350505050919050565b61179483836119c2565b6117a961179f610bf1565b60008585856110e1565b505050565b60008073ffffffffffffffffffffffffffffffffffffffff168373ffffffffffffffffffffffffffffffffffffffff161415801561186657508273ffffffffffffffffffffffffffffffffffffffff168473ffffffffffffffffffffffffffffffffffffffff16148061182757506118268484610930565b5b8061186557508273ffffffffffffffffffffffffffffffffffffffff1661184d83610bb4565b73ffffffffffffffffffffffffffffffffffffffff16145b5b90509392505050565b600080600090507a184f03e93ff9f4daa797ed6e38ed64bf6a1f01000000000000000083106118cd577a184f03e93ff9f4daa797ed6e38ed64bf6a1f01000000000000000083816118c3576118c261261a565b5b0492506040810190505b6d04ee2d6d415b85acef8100000000831061190a576d04ee2d6d415b85acef81000000008381611900576118ff61261a565b5b0492506020810190505b662386f26fc10000831061193957662386f26fc10000838161192f5761192e61261a565b5b0492506010810190505b6305f5e1008310611962576305f5e10083816119585761195761261a565b5b0492506008810190505b612710831061198757612710838161197d5761197c61261a565b5b0492506004810190505b606483106119aa57606483816119a05761199f61261a565b5b0492506002810190505b600a83106119b9576001810190505b80915050919050565b600073ffffffffffffffffffffffffffffffffffffffff168273ffffffffffffffffffffffffffffffffffffffff1603611a345760006040517f64a0ae92000000000000000000000000000000000000000000000000000000008152600401611a2b9190611ce0565b60405180910390fd5b6000611a4283836000610c0b565b9050600073ffffffffffffffffffffffffffffffffffffffff168173ffffffffffffffffffffffffffffffffffffffff1614611ab65760006040517f73c6ac6e000000000000000000000000000000000000000000000000000000008152600401611aad9190611ce0565b60405180910390fd5b505050565b6000604051905090565b600080fd5b600080fd5b60007fffffffff0000000000000000000000000000000000000000000000000000000082169050919050565b611b0481611acf565b8114611b0f57600080fd5b50565b600081359050611b2181611afb565b92915050565b600060208284031215611b3d57611b3c611ac5565b5b6000611b4b84828501611b12565b91505092915050565b60008115159050919050565b611b6981611b54565b82525050565b6000602082019050611b846000830184611b60565b92915050565b600081519050919050565b600082825260208201905092915050565b60005b83811015611bc4578082015181840152602081019050611ba9565b60008484015250505050565b6000601f19601f8301169050919050565b6000611bec82611b8a565b611bf68185611b95565b9350611c06818560208601611ba6565b611c0f81611bd0565b840191505092915050565b60006020820190508181036000830152611c348184611be1565b905092915050565b6000819050919050565b611c4f81611c3c565b8114611c5a57600080fd5b50565b600081359050611c6c81611c46565b92915050565b600060208284031215611c8857611c87611ac5565b5b6000611c9684828501611c5d565b91505092915050565b600073ffffffffffffffffffffffffffffffffffffffff82169050919050565b6000611cca82611c9f565b9050919050565b611cda81611cbf565b82525050565b6000602082019050611cf56000830184611cd1565b92915050565b611d0481611cbf565b8114611d0f57600080fd5b50565b600081359050611d2181611cfb565b92915050565b60008060408385031215611d3e57611d3d611ac5565b5b6000611d4c85828601611d12565b9250506020611d5d85828601611c5d565b9150509250929050565b600080600060608486031215611d8057611d7f611ac5565b5b6000611d8e86828701611d12565b9350506020611d9f86828701611d12565b9250506040611db086828701611c5d565b9150509250925092565b600060208284031215611dd057611dcf611ac5565b5b6000611dde84828501611d12565b91505092915050565b611df081611c3c565b82525050565b6000602082019050611e0b6000830184611de7565b92915050565b611e1a81611b54565b8114611e2557600080fd5b50565b600081359050611e3781611e11565b92915050565b60008060408385031215611e5457611e53611ac5565b5b6000611e6285828601611d12565b9250506020611e7385828601611e28565b9150509250929050565b600080fd5b600080fd5b7f4e487b7100000000000000000000000000000000000000000000000000000000600052604160045260246000fd5b611ebf82611bd0565b810181811067ffffffffffffffff82111715611ede57611edd611e87565b5b80604052505050565b6000611ef1611abb565b9050611efd8282611eb6565b919050565b600067ffffffffffffffff821115611f1d57611f1c611e87565b5b611f2682611bd0565b9050602081019050919050565b82818337600083830152505050565b6000611f55611f5084611f02565b611ee7565b905082815260208101848484011115611f7157611f70611e82565b5b611f7c848285611f33565b509392505050565b600082601f830112611f9957611f98611e7d565b5b8135611fa9848260208601611f42565b91505092915050565b60008060008060808587031215611fcc57611fcb611ac5565b5b6000611fda87828801611d12565b9450506020611feb87828801611d12565b9350506040611ffc87828801611c5d565b925050606085013567ffffffffffffffff81111561201d5761201c611aca565b5b61202987828801611f84565b91505092959194509250565b600080fd5b600080fd5b60008083601f84011261205557612054611e7d565b5b8235905067ffffffffffffffff81111561207257612071612035565b5b60208301915083600182028301111561208e5761208d61203a565b5b9250929050565b600080602083850312156120ac576120ab611ac5565b5b600083013567ffffffffffffffff8111156120ca576120c9611aca565b5b6120d68582860161203f565b92509250509250929050565b600080604083850312156120f9576120f8611ac5565b5b600061210785828601611d12565b925050602061211885828601611d12565b9150509250929050565b7f4e487b7100000000000000000000000000000000000000000000000000000000600052602260045260246000fd5b6000600282049050600182168061216957607f821691505b60208210810361217c5761217b612122565b5b50919050565b60006060820190506121976000830186611cd1565b6121a46020830185611de7565b6121b16040830184611cd1565b949350505050565b600081905092915050565b60006121cf82611b8a565b6121d981856121b9565b93506121e9818560208601611ba6565b80840191505092915050565b600061220182856121c4565b915061220d82846121c4565b91508190509392505050565b7f4e487b7100000000000000000000000000000000000000000000000000000000600052601160045260246000fd5b600061225382611c3c565b91507fffffffffffffffffffffffffffffffffffffffffffffffffffffffffffffffff820361228557612284612219565b5b600182019050919050565b600081519050919050565b600082825260208201905092915050565b60006122b782612290565b6122c1818561229b565b93506122d1818560208601611ba6565b6122da81611bd0565b840191505092915050565b60006080820190506122fa6000830187611cd1565b6123076020830186611cd1565b6123146040830185611de7565b818103606083015261232681846122ac565b905095945050505050565b60008151905061234081611afb565b92915050565b60006020828403121561235c5761235b611ac5565b5b600061236a84828501612331565b91505092915050565b60008190508160005260206000209050919050565b60006020601f8301049050919050565b600082821b905092915050565b6000600883026123d57fffffffffffffffffffffffffffffffffffffffffffffffffffffffffffffffff82612398565b6123df8683612398565b95508019841693508086168417925050509392505050565b6000819050919050565b600061241c61241761241284611c3c565b6123f7565b611c3c565b9050919050565b6000819050919050565b61243683612401565b61244a61244282612423565b8484546123a5565b825550505050565b600090565b61245f612452565b61246a81848461242d565b505050565b5b8181101561248e57612483600082612457565b600181019050612470565b5050565b601f8211156124d3576124a481612373565b6124ad84612388565b810160208510156124bc578190505b6124d06124c885612388565b83018261246f565b50505b505050565b600082821c905092915050565b60006124f6600019846008026124d8565b1980831691505092915050565b600061250f83836124e5565b9150826002028217905092915050565b61252882611b8a565b67ffffffffffffffff81111561254157612540611e87565b5b61254b8254612151565b612556828285612492565b600060209050601f8311600181146125895760008415612577578287015190505b6125818582612503565b8655506125e9565b601f19841661259786612373565b60005b828110156125bf5784890151825560018201915060208501945060208101905061259a565b868310156125dc57848901516125d8601f8916826124e5565b8355505b6001600288020188555050505b505050505050565b60006040820190506126066000830185611cd1565b6126136020830184611de7565b9392505050565b7f4e487b7100000000000000000000000000000000000000000000000000000000600052601260045260246000fdfea26469706673582212203e59f1e9e3eb708ddab36b5a150e26d29db6daccb640436f27f884c048bc882a64736f6c634300081c0033",
  "linkReferences": {},
  "deployedLinkReferences": {}
}